:100000000C942A001895000018950000189500001F
:10001000189500001895000018950000189500002C
:10002000189500001895000018950000189500001C
:10003000189500001895000018950000189500000C
:1000400018950000189500001895000018950000FC
:10005000189500008FE58DBFC8E3E0E24E2E84E0E6
:100060008EBFD4E0F4E05F2EA89584B7082E877F7A
:1000700084BF88E1992781BD91BDEEEFF3E0A0E652
:10008000B0E088278D933197E9F70E94AB00662492
:100090000E941D010E943501A0E6B0E00C93009182
:1000A0006000003111F00C94580084E680936200E7
:1000B000E8E1F1E0A0E6B0E08C919927A2E6B0E09B
:1000C0000E948001009162000A3010F40C946B00D1
:1000D00084E680936200809162000E9426010E9463
:1000E0002A010E942801A1E6B0E08C9300916100F2
:1000F000043611F00C947E000C944A000E94A0007B
:100100000E949C00E1E6F0E0A8E0B4E00E94A101BA
:100110000E9494000C944A000708090A040506147A
:100120000102031E2800323CA8E0B4E08D91882330
:1001300011F059D0FBCF089582E05BD009D005C003
:1001400081E057D005D080E854C080E852D00895AF
:1001500083E09927B1C08AEF90E00E945C01A79AE2
:10016000A69AA59AA49AA39AA29AAA9885E090E042
:100170000E945C01AB98AF98AE98AD9AAC9AAB9ADE
:10018000EF93FF93E5E1F0E00E941A01FF91EF91F8
:10019000AB988FD0AB9AEF93FF93E5E1F0E00E942C
:1001A0001A01FF91EF91AB9884D0AB9AEF93FF9334
:1001B000E5E1F0E00E941A01FF91EF91AB9879D050
:1001C000AC98AB9AEF93FF93E5E1F0E00E941A013F
:1001D000FF91EF91AB986DD088E20BD08EE009D003
:1001E00086E007D00895AA9A829505D004D061D000
:1001F0000895AA98F9CF859510F4AC9A01C0AC98EF
:10020000859510F4AD9A01C0AD98859510F4AE9A1D
:1002100001C0AE98859510F4AF9A01C0AF98AB9A23
:10022000EF93FF93E5E1F0E00E941A01FF91EF9157
:10023000AB9808953197F1F70895BF9ABE98C69A82
:10024000BD9ABC9AC49A8FE78DB90895C498089551
:10025000C49A08958FB9779BFECF8FB108956894A3
:1002600062F80895E89462F8089500E18FEF82BB88
:100270008FE081BB80EF82BB17D0849B00E0859B21
:1002800004E0869B08E0879B0CE080EF81BB8FE059
:1002900082BB0AD0809B80E0819B81E0829B82E0D0
:1002A000839B83E0080F089584E100008A95E9F7B5
:1002B000089581E090E000C0EF93FF93EE27E82BD4
:1002C000E92B31F0EAEFF0E03197F1F70197D1F740
:1002D000FF91EF910895019111912191308108953D
:1002E000C89531960020089591E005C092E003C0C2
:1002F00094E001C098E0F4DF0D929A95E1F708953B
:10030000E80FF91FF1CF000F111F221F331F0895AF
:1003100000951095209530950F5F1F4F2F4F3F4F41
:100320000895019110810FC00E946B010EC00E94C0
:100330006B0110C00191108117FF05C03FEF2FEF37
:1003400004C0008111272227332737FF03C0E0DFD5
:100350008DE28D93CF92DF92EF92AA24BB24CC241E
:10036000DD24EE2440E2EAE0FF2755E093E38081BC
:10037000890F87FD9F7083FD907F891B81935A951C
:10038000A9F7C1DFAA1CBB1CCC1CDD1CEE1C4A95C6
:1003900051F7E894EFE0FF2782910BD0EB30E0F7C4
:1003A0001EF068948A2D09D04D93EF90DF90CF9086
:1003B0000895982F829501D0892F8F70805D26F047
:0C03C000803309F4089568948D9308952B
:00000001FF
